{
  "_format": "hh-sol-artifact-1",
  "contractName": "EventManager",
  "sourceName": "contracts/EventManager.sol",
  "abi": [
    {
      "inputs": [],
      "stateMutability": "nonpayable",
      "type": "constructor"
    },
    {
      "anonymous": false,
      "inputs": [
        {
          "indexed": true,
          "internalType": "address",
          "name": "creator",
          "type": "address"
        },
        {
          "indexed": true,
          "internalType": "address",
          "name": "eventContractAddress",
          "type": "address"
        }
      ],
      "name": "EventCreated",
      "type": "event"
    },
    {
      "inputs": [
        {
          "internalType": "address",
          "name": "_creator",
          "type": "address"
        }
      ],
      "name": "addToWhitelist",
      "outputs": [],
      "stateMutability": "nonpayable",
      "type": "function"
    },
    {
      "inputs": [
        {
          "internalType": "uint256",
          "name": "",
          "type": "uint256"
        }
      ],
      "name": "allEvents",
      "outputs": [
        {
          "internalType": "address",
          "name": "",
          "type": "address"
        }
      ],
      "stateMutability": "view",
      "type": "function"
    },
    {
      "inputs": [
        {
          "internalType": "string",
          "name": "_name",
          "type": "string"
        },
        {
          "internalType": "string",
          "name": "_symbol",
          "type": "string"
        },
        {
          "internalType": "uint256",
          "name": "_maxSupply",
          "type": "uint256"
        }
      ],
      "name": "createEvent",
      "outputs": [],
      "stateMutability": "nonpayable",
      "type": "function"
    },
    {
      "inputs": [
        {
          "internalType": "address",
          "name": "",
          "type": "address"
        }
      ],
      "name": "isWhitelisted",
      "outputs": [
        {
          "internalType": "bool",
          "name": "",
          "type": "bool"
        }
      ],
      "stateMutability": "view",
      "type": "function"
    },
    {
      "inputs": [],
      "name": "owner",
      "outputs": [
        {
          "internalType": "address",
          "name": "",
          "type": "address"
        }
      ],
      "stateMutability": "view",
      "type": "function"
    },
    {
      "inputs": [
        {
          "internalType": "address",
          "name": "_creator",
          "type": "address"
        }
      ],
      "name": "removeFromWhitelist",
      "outputs": [],
      "stateMutability": "nonpayable",
      "type": "function"
    }
  ],
  "bytecode": "0x6080604052348015600f57600080fd5b50336000806101000a81548173ffffffffffffffffffffffffffffffffffffffff021916908373ffffffffffffffffffffffffffffffffffffffff16021790555060018060003373ffffffffffffffffffffffffffffffffffffffff1673ffffffffffffffffffffffffffffffffffffffff16815260200190815260200160002060006101000a81548160ff021916908315150217905550613525806100b66000396000f3fe608060405234801561001057600080fd5b50600436106100625760003560e01c80633af32abf146100675780633bec5cff146100975780635555fe17146100c75780638ab1d681146100e35780638da5cb5b146100ff578063e43252d71461011d575b600080fd5b610081600480360381019061007c9190610599565b610139565b60405161008e91906105e1565b60405180910390f35b6100b160048036038101906100ac9190610632565b610159565b6040516100be919061066e565b60405180910390f35b6100e160048036038101906100dc91906107cf565b610198565b005b6100fd60048036038101906100f89190610599565b610325565b005b61010761040e565b604051610114919061066e565b60405180910390f35b61013760048036038101906101329190610599565b610432565b005b60016020528060005260406000206000915054906101000a900460ff1681565b6002818154811061016957600080fd5b906000526020600020016000915054906101000a900473ffffffffffffffffffffffffffffffffffffffff1681565b600160003373ffffffffffffffffffffffffffffffffffffffff1673ffffffffffffffffffffffffffffffffffffffff16815260200190815260200160002060009054906101000a900460ff16610224576040517f08c379a000000000000000000000000000000000000000000000000000000000815260040161021b906108b7565b60405180910390fd5b6000838333846040516102369061051a565b6102439493929190610954565b604051809103906000f08015801561025f573d6000803e3d6000fd5b5090506002819080600181540180825580915050600190039060005260206000200160009091909190916101000a81548173ffffffffffffffffffffffffffffffffffffffff021916908373ffffffffffffffffffffffffffffffffffffffff1602179055508073ffffffffffffffffffffffffffffffffffffffff163373ffffffffffffffffffffffffffffffffffffffff167feccebe7b9eb846e30e8b21dfb66cad3313d87176fcd3b0a708737943afdaf82060405160405180910390a350505050565b60008054906101000a900473ffffffffffffffffffffffffffffffffffffffff1673ffffffffffffffffffffffffffffffffffffffff163373ffffffffffffffffffffffffffffffffffffffff16146103b3576040517f08c379a00000000000000000000000000000000000000000000000000000000081526004016103aa90610a19565b60405180910390fd5b6000600160008373ffffffffffffffffffffffffffffffffffffffff1673ffffffffffffffffffffffffffffffffffffffff16815260200190815260200160002060006101000a81548160ff02191690831515021790555050565b60008054906101000a900473ffffffffffffffffffffffffffffffffffffffff1681565b60008054906101000a900473ffffffffffffffffffffffffffffffffffffffff1673ffffffffffffffffffffffffffffffffffffffff163373ffffffffffffffffffffffffffffffffffffffff16146104c0576040517f08c379a00000000000000000000000000000000000000000000000000000000081526004016104b790610aab565b60405180910390fd5b60018060008373ffffffffffffffffffffffffffffffffffffffff1673ffffffffffffffffffffffffffffffffffffffff16815260200190815260200160002060006101000a81548160ff02191690831515021790555050565b612a2480610acc83390190565b6000604051905090565b600080fd5b600080fd5b600073ffffffffffffffffffffffffffffffffffffffff82169050919050565b60006105668261053b565b9050919050565b6105768161055b565b811461058157600080fd5b50565b6000813590506105938161056d565b92915050565b6000602082840312156105af576105ae610531565b5b60006105bd84828501610584565b91505092915050565b60008115159050919050565b6105db816105c6565b82525050565b60006020820190506105f660008301846105d2565b92915050565b6000819050919050565b61060f816105fc565b811461061a57600080fd5b50565b60008135905061062c81610606565b92915050565b60006020828403121561064857610647610531565b5b60006106568482850161061d565b91505092915050565b6106688161055b565b82525050565b6000602082019050610683600083018461065f565b92915050565b600080fd5b600080fd5b6000601f19601f8301169050919050565b7f4e487b7100000000000000000000000000000000000000000000000000000000600052604160045260246000fd5b6106dc82610693565b810181811067ffffffffffffffff821117156106fb576106fa6106a4565b5b80604052505050565b600061070e610527565b905061071a82826106d3565b919050565b600067ffffffffffffffff82111561073a576107396106a4565b5b61074382610693565b9050602081019050919050565b82818337600083830152505050565b600061077261076d8461071f565b610704565b90508281526020810184848401111561078e5761078d61068e565b5b610799848285610750565b509392505050565b600082601f8301126107b6576107b5610689565b5b81356107c684826020860161075f565b91505092915050565b6000806000606084860312156107e8576107e7610531565b5b600084013567ffffffffffffffff81111561080657610805610536565b5b610812868287016107a1565b935050602084013567ffffffffffffffff81111561083357610832610536565b5b61083f868287016107a1565b92505060406108508682870161061d565b9150509250925092565b600082825260208201905092915050565b7f43616c6c6572206973206e6f742077686974656c697374656400000000000000600082015250565b60006108a160198361085a565b91506108ac8261086b565b602082019050919050565b600060208201905081810360008301526108d081610894565b9050919050565b600081519050919050565b60005b838110156109005780820151818401526020810190506108e5565b60008484015250505050565b6000610917826108d7565b610921818561085a565b93506109318185602086016108e2565b61093a81610693565b840191505092915050565b61094e816105fc565b82525050565b6000608082019050818103600083015261096e818761090c565b90508181036020830152610982818661090c565b9050610991604083018561065f565b61099e6060830184610945565b95945050505050565b7f4f6e6c7920746865206f776e65722063616e2072656d6f76652066726f6d207460008201527f68652077686974656c6973740000000000000000000000000000000000000000602082015250565b6000610a03602c8361085a565b9150610a0e826109a7565b604082019050919050565b60006020820190508181036000830152610a32816109f6565b9050919050565b7f4f6e6c7920746865206f776e65722063616e2061646420746f2074686520776860008201527f6974656c69737400000000000000000000000000000000000000000000000000602082015250565b6000610a9560278361085a565b9150610aa082610a39565b604082019050919050565b60006020820190508181036000830152610ac481610a88565b905091905056fe608060405234801561001057600080fd5b50604051612a24380380612a24833981810160405281019061003291906102b8565b83838160009081610043919061056e565b508060019081610053919061056e565b50505081600660006101000a81548173ffffffffffffffffffffffffffffffffffffffff021916908373ffffffffffffffffffffffffffffffffffffffff16021790555080600781905550600160088190555050505050610640565b6000604051905090565b600080fd5b600080fd5b600080fd5b600080fd5b6000601f19601f8301169050919050565b7f4e487b7100000000000000000000000000000000000000000000000000000000600052604160045260246000fd5b610116826100cd565b810181811067ffffffffffffffff82111715610135576101346100de565b5b80604052505050565b60006101486100af565b9050610154828261010d565b919050565b600067ffffffffffffffff821115610174576101736100de565b5b61017d826100cd565b9050602081019050919050565b60005b838110156101a857808201518184015260208101905061018d565b60008484015250505050565b60006101c76101c284610159565b61013e565b9050828152602081018484840111156101e3576101e26100c8565b5b6101ee84828561018a565b509392505050565b600082601f83011261020b5761020a6100c3565b5b815161021b8482602086016101b4565b91505092915050565b600073ffffffffffffffffffffffffffffffffffffffff82169050919050565b600061024f82610224565b9050919050565b61025f81610244565b811461026a57600080fd5b50565b60008151905061027c81610256565b92915050565b6000819050919050565b61029581610282565b81146102a057600080fd5b50565b6000815190506102b28161028c565b92915050565b600080600080608085870312156102d2576102d16100b9565b5b600085015167ffffffffffffffff8111156102f0576102ef6100be565b5b6102fc878288016101f6565b945050602085015167ffffffffffffffff81111561031d5761031c6100be565b5b610329878288016101f6565b935050604061033a8782880161026d565b925050606061034b878288016102a3565b91505092959194509250565b600081519050919050565b7f4e487b7100000000000000000000000000000000000000000000000000000000600052602260045260246000fd5b600060028204905060018216806103a957607f821691505b6020821081036103bc576103bb610362565b5b50919050565b60008190508160005260206000209050919050565b60006020601f8301049050919050565b600082821b905092915050565b6000600883026104247fffffffffffffffffffffffffffffffffffffffffffffffffffffffffffffffff826103e7565b61042e86836103e7565b95508019841693508086168417925050509392505050565b6000819050919050565b600061046b61046661046184610282565b610446565b610282565b9050919050565b6000819050919050565b61048583610450565b61049961049182610472565b8484546103f4565b825550505050565b600090565b6104ae6104a1565b6104b981848461047c565b505050565b5b818110156104dd576104d26000826104a6565b6001810190506104bf565b5050565b601f821115610522576104f3816103c2565b6104fc846103d7565b8101602085101561050b578190505b61051f610517856103d7565b8301826104be565b50505b505050565b600082821c905092915050565b600061054560001984600802610527565b1980831691505092915050565b600061055e8383610534565b9150826002028217905092915050565b61057782610357565b67ffffffffffffffff8111156105905761058f6100de565b5b61059a8254610391565b6105a58282856104e1565b600060209050601f8311600181146105d857600084156105c6578287015190505b6105d08582610552565b865550610638565b601f1984166105e6866103c2565b60005b8281101561060e578489015182556001820191506020850194506020810190506105e9565b8683101561062b5784890151610627601f891682610534565b8355505b6001600288020188555050505b505050505050565b6123d58061064f6000396000f3fe608060405234801561001057600080fd5b50600436106101215760003560e01c8063573c80fa116100ad578063a22cb46511610071578063a22cb46514610308578063b88d4fde14610324578063c87b56dd14610340578063d5abeb0114610370578063e985e9c51461038e57610121565b8063573c80fa146102625780636352211e1461026c57806370a082311461029c57806375794a3c146102cc57806395d89b41146102ea57610121565b8063095ea7b3116100f4578063095ea7b3146101c257806315f59d7f146101de57806323b872dd146101fa57806332d33cd01461021657806342842e0e1461024657610121565b806301ffc9a71461012657806302d05d3f1461015657806306fdde0314610174578063081812fc14610192575b600080fd5b610140600480360381019061013b91906119d2565b6103be565b60405161014d9190611a1a565b60405180910390f35b61015e6104a0565b60405161016b9190611a76565b60405180910390f35b61017c6104c6565b6040516101899190611b21565b60405180910390f35b6101ac60048036038101906101a79190611b79565b610558565b6040516101b99190611a76565b60405180910390f35b6101dc60048036038101906101d79190611bd2565b610574565b005b6101f860048036038101906101f39190611b79565b61058a565b005b610214600480360381019061020f9190611c12565b61074e565b005b610230600480360381019061022b9190611b79565b610850565b60405161023d9190611a1a565b60405180910390f35b610260600480360381019061025b9190611c12565b610870565b005b61026a610890565b005b61028660048036038101906102819190611b79565b610947565b6040516102939190611a76565b60405180910390f35b6102b660048036038101906102b19190611c65565b610959565b6040516102c39190611ca1565b60405180910390f35b6102d4610a13565b6040516102e19190611ca1565b60405180910390f35b6102f2610a19565b6040516102ff9190611b21565b60405180910390f35b610322600480360381019061031d9190611ce8565b610aab565b005b61033e60048036038101906103399190611e5d565b610ac1565b005b61035a60048036038101906103559190611b79565b610ae6565b6040516103679190611b21565b60405180910390f35b610378610b4f565b6040516103859190611ca1565b60405180910390f35b6103a860048036038101906103a39190611ee0565b610b55565b6040516103b59190611a1a565b60405180910390f35b60007f80ac58cd000000000000000000000000000000000000000000000000000000007bffffffffffffffffffffffffffffffffffffffffffffffffffffffff1916827bffffffffffffffffffffffffffffffffffffffffffffffffffffffff1916148061048957507f5b5e139f000000000000000000000000000000000000000000000000000000007bffffffffffffffffffffffffffffffffffffffffffffffffffffffff1916827bffffffffffffffffffffffffffffffffffffffffffffffffffffffff1916145b80610499575061049882610be9565b5b9050919050565b600660009054906101000a900473ffffffffffffffffffffffffffffffffffffffff1681565b6060600080546104d590611f4f565b80601f016020809104026020016040519081016040528092919081815260200182805461050190611f4f565b801561054e5780601f106105235761010080835404028352916020019161054e565b820191906000526020600020905b81548152906001019060200180831161053157829003601f168201915b5050505050905090565b600061056382610c53565b5061056d82610cdb565b9050919050565b6105868282610581610d18565b610d20565b5050565b600660009054906101000a900473ffffffffffffffffffffffffffffffffffffffff1673ffffffffffffffffffffffffffffffffffffffff163373ffffffffffffffffffffffffffffffffffffffff161461061a576040517f08c379a000000000000000000000000000000000000000000000000000000000815260040161061190611ff2565b60405180910390fd5b600073ffffffffffffffffffffffffffffffffffffffff1661063b82610947565b73ffffffffffffffffffffffffffffffffffffffff1603610691576040517f08c379a00000000000000000000000000000000000000000000000000000000081526004016106889061205e565b60405180910390fd5b6009600082815260200190815260200160002060009054906101000a900460ff16156106f2576040517f08c379a00000000000000000000000000000000000000000000000000000000081526004016106e9906120ca565b60405180910390fd5b60016009600083815260200190815260200160002060006101000a81548160ff021916908315150217905550807fb0ebd5f2f7c40ca5715d8deab780894f023a63bc249fc45e69df6acbc4e8b56860405160405180910390a250565b600073ffffffffffffffffffffffffffffffffffffffff168273ffffffffffffffffffffffffffffffffffffffff16036107c05760006040517f64a0ae920000000000000000000000000000000000000000000000000000000081526004016107b79190611a76565b60405180910390fd5b60006107d483836107cf610d18565b610d32565b90508373ffffffffffffffffffffffffffffffffffffffff168173ffffffffffffffffffffffffffffffffffffffff161461084a578382826040517f64283d7b000000000000000000000000000000000000000000000000000000008152600401610841939291906120ea565b60405180910390fd5b50505050565b60096020528060005260406000206000915054906101000a900460ff1681565b61088b83838360405180602001604052806000815250610ac1565b505050565b60075460085411156108d7576040517f08c379a00000000000000000000000000000000000000000000000000000000081526004016108ce9061216d565b60405180910390fd5b600060085490506108e83382610f4c565b600860008154809291906108fb906121bc565b9190505550803373ffffffffffffffffffffffffffffffffffffffff167fe3bc6f5972e89b7adec47f0277204f27cd981570e200dd4d408093535c9e8e6960405160405180910390a350565b600061095282610c53565b9050919050565b60008073ffffffffffffffffffffffffffffffffffffffff168273ffffffffffffffffffffffffffffffffffffffff16036109cc5760006040517f89c62b640000000000000000000000000000000000000000000000000000000081526004016109c39190611a76565b60405180910390fd5b600360008373ffffffffffffffffffffffffffffffffffffffff1673ffffffffffffffffffffffffffffffffffffffff168152602001908152602001600020549050919050565b60085481565b606060018054610a2890611f4f565b80601f0160208091040260200160405190810160405280929190818152602001828054610a5490611f4f565b8015610aa15780601f10610a7657610100808354040283529160200191610aa1565b820191906000526020600020905b815481529060010190602001808311610a8457829003601f168201915b5050505050905090565b610abd610ab6610d18565b8383610f6a565b5050565b610acc84848461074e565b610ae0610ad7610d18565b858585856110d9565b50505050565b6060610af182610c53565b506000610afc61128a565b90506000815111610b1c5760405180602001604052806000815250610b47565b80610b26846112a1565b604051602001610b37929190612240565b6040516020818303038152906040525b915050919050565b60075481565b6000600560008473ffffffffffffffffffffffffffffffffffffffff1673ffffffffffffffffffffffffffffffffffffffff16815260200190815260200160002060008373ffffffffffffffffffffffffffffffffffffffff1673ffffffffffffffffffffffffffffffffffffffff16815260200190815260200160002060009054906101000a900460ff16905092915050565b60007f01ffc9a7000000000000000000000000000000000000000000000000000000007bffffffffffffffffffffffffffffffffffffffffffffffffffffffff1916827bffffffffffffffffffffffffffffffffffffffffffffffffffffffff1916149050919050565b600080610c5f8361136f565b9050600073ffffffffffffffffffffffffffffffffffffffff168173ffffffffffffffffffffffffffffffffffffffff1603610cd257826040517f7e273289000000000000000000000000000000000000000000000000000000008152600401610cc99190611ca1565b60405180910390fd5b80915050919050565b60006004600083815260200190815260200160002060009054906101000a900473ffffffffffffffffffffffffffffffffffffffff169050919050565b600033905090565b610d2d83838360016113ac565b505050565b600080610d3e8461136f565b9050600073ffffffffffffffffffffffffffffffffffffffff168373ffffffffffffffffffffffffffffffffffffffff1614610d8057610d7f818486611571565b5b600073ffffffffffffffffffffffffffffffffffffffff168173ffffffffffffffffffffffffffffffffffffffff1614610e1157610dc26000856000806113ac565b6001600360008373ffffffffffffffffffffffffffffffffffffffff1673ffffffffffffffffffffffffffffffffffffffff168152602001908152602001600020600082825403925050819055505b600073ffffffffffffffffffffffffffffffffffffffff168573ffffffffffffffffffffffffffffffffffffffff1614610e94576001600360008773ffffffffffffffffffffffffffffffffffffffff1673ffffffffffffffffffffffffffffffffffffffff168152602001908152602001600020600082825401925050819055505b846002600086815260200190815260200160002060006101000a81548173ffffffffffffffffffffffffffffffffffffffff021916908373ffffffffffffffffffffffffffffffffffffffff160217905550838573ffffffffffffffffffffffffffffffffffffffff168273ffffffffffffffffffffffffffffffffffffffff167fddf252ad1be2c89b69c2b068fc378daa952ba7f163c4a11628f55a4df523b3ef60405160405180910390a4809150509392505050565b610f66828260405180602001604052806000815250611635565b5050565b600073ffffffffffffffffffffffffffffffffffffffff168273ffffffffffffffffffffffffffffffffffffffff1603610fdb57816040517f5b08ba18000000000000000000000000000000000000000000000000000000008152600401610fd29190611a76565b60405180910390fd5b80600560008573ffffffffffffffffffffffffffffffffffffffff1673ffffffffffffffffffffffffffffffffffffffff16815260200190815260200160002060008473ffffffffffffffffffffffffffffffffffffffff1673ffffffffffffffffffffffffffffffffffffffff16815260200190815260200160002060006101000a81548160ff0219169083151502179055508173ffffffffffffffffffffffffffffffffffffffff168373ffffffffffffffffffffffffffffffffffffffff167f17307eab39ab6107e8899845ad3d59bd9653f200f220920489ca2b5937696c31836040516110cc9190611a1a565b60405180910390a3505050565b60008373ffffffffffffffffffffffffffffffffffffffff163b1115611283578273ffffffffffffffffffffffffffffffffffffffff1663150b7a02868685856040518563ffffffff1660e01b815260040161113894939291906122b9565b6020604051808303816000875af192505050801561117457506040513d601f19601f82011682018060405250810190611171919061231a565b60015b6111f8573d80600081146111a4576040519150601f19603f3d011682016040523d82523d6000602084013e6111a9565b606091505b5060008151036111f057836040517f64a0ae920000000000000000000000000000000000000000000000000000000081526004016111e79190611a76565b60405180910390fd5b805160208201fd5b63150b7a0260e01b7bffffffffffffffffffffffffffffffffffffffffffffffffffffffff1916817bffffffffffffffffffffffffffffffffffffffffffffffffffffffff19161461128157836040517f64a0ae920000000000000000000000000000000000000000000000000000000081526004016112789190611a76565b60405180910390fd5b505b5050505050565b606060405180602001604052806000815250905090565b6060600060016112b084611659565b01905060008167ffffffffffffffff8111156112cf576112ce611d32565b5b6040519080825280601f01601f1916602001820160405280156113015781602001600182028036833780820191505090505b509050600082602083010190505b600115611364578080600190039150507f3031323334353637383961626364656600000000000000000000000000000000600a86061a8153600a858161135857611357612347565b5b0494506000850361130f575b819350505050919050565b60006002600083815260200190815260200160002060009054906101000a900473ffffffffffffffffffffffffffffffffffffffff169050919050565b80806113e55750600073ffffffffffffffffffffffffffffffffffffffff168273ffffffffffffffffffffffffffffffffffffffff1614155b156115195760006113f584610c53565b9050600073ffffffffffffffffffffffffffffffffffffffff168373ffffffffffffffffffffffffffffffffffffffff161415801561146057508273ffffffffffffffffffffffffffffffffffffffff168173ffffffffffffffffffffffffffffffffffffffff1614155b801561147357506114718184610b55565b155b156114b557826040517fa9fbf51f0000000000000000000000000000000000000000000000000000000081526004016114ac9190611a76565b60405180910390fd5b811561151757838573ffffffffffffffffffffffffffffffffffffffff168273ffffffffffffffffffffffffffffffffffffffff167f8c5be1e5ebec7d5bd14f71427d1e84f3dd0314c0f7b2291e5b200ac8c7c3b92560405160405180910390a45b505b836004600085815260200190815260200160002060006101000a81548173ffffffffffffffffffffffffffffffffffffffff021916908373ffffffffffffffffffffffffffffffffffffffff16021790555050505050565b61157c8383836117ac565b61163057600073ffffffffffffffffffffffffffffffffffffffff168373ffffffffffffffffffffffffffffffffffffffff16036115f157806040517f7e2732890000000000000000000000000000000000000000000000000000000081526004016115e89190611ca1565b60405180910390fd5b81816040517f177e802f000000000000000000000000000000000000000000000000000000008152600401611627929190612376565b60405180910390fd5b505050565b61163f838361186d565b61165461164a610d18565b60008585856110d9565b505050565b600080600090507a184f03e93ff9f4daa797ed6e38ed64bf6a1f01000000000000000083106116b7577a184f03e93ff9f4daa797ed6e38ed64bf6a1f01000000000000000083816116ad576116ac612347565b5b0492506040810190505b6d04ee2d6d415b85acef810000000083106116f4576d04ee2d6d415b85acef810000000083816116ea576116e9612347565b5b0492506020810190505b662386f26fc10000831061172357662386f26fc10000838161171957611718612347565b5b0492506010810190505b6305f5e100831061174c576305f5e100838161174257611741612347565b5b0492506008810190505b612710831061177157612710838161176757611766612347565b5b0492506004810190505b60648310611794576064838161178a57611789612347565b5b0492506002810190505b600a83106117a3576001810190505b80915050919050565b60008073ffffffffffffffffffffffffffffffffffffffff168373ffffffffffffffffffffffffffffffffffffffff161415801561186457508273ffffffffffffffffffffffffffffffffffffffff168473ffffffffffffffffffffffffffffffffffffffff16148061182557506118248484610b55565b5b8061186357508273ffffffffffffffffffffffffffffffffffffffff1661184b83610cdb565b73ffffffffffffffffffffffffffffffffffffffff16145b5b90509392505050565b600073ffffffffffffffffffffffffffffffffffffffff168273ffffffffffffffffffffffffffffffffffffffff16036118df5760006040517f64a0ae920000000000000000000000000000000000000000000000000000000081526004016118d69190611a76565b60405180910390fd5b60006118ed83836000610d32565b9050600073ffffffffffffffffffffffffffffffffffffffff168173ffffffffffffffffffffffffffffffffffffffff16146119615760006040517f73c6ac6e0000000000000000000000000000000000000000000000000000000081526004016119589190611a76565b60405180910390fd5b505050565b6000604051905090565b600080fd5b600080fd5b60007fffffffff0000000000000000000000000000000000000000000000000000000082169050919050565b6119af8161197a565b81146119ba57600080fd5b50565b6000813590506119cc816119a6565b92915050565b6000602082840312156119e8576119e7611970565b5b60006119f6848285016119bd565b91505092915050565b60008115159050919050565b611a14816119ff565b82525050565b6000602082019050611a2f6000830184611a0b565b92915050565b600073ffffffffffffffffffffffffffffffffffffffff82169050919050565b6000611a6082611a35565b9050919050565b611a7081611a55565b82525050565b6000602082019050611a8b6000830184611a67565b92915050565b600081519050919050565b600082825260208201905092915050565b60005b83811015611acb578082015181840152602081019050611ab0565b60008484015250505050565b6000601f19601f8301169050919050565b6000611af382611a91565b611afd8185611a9c565b9350611b0d818560208601611aad565b611b1681611ad7565b840191505092915050565b60006020820190508181036000830152611b3b8184611ae8565b905092915050565b6000819050919050565b611b5681611b43565b8114611b6157600080fd5b50565b600081359050611b7381611b4d565b92915050565b600060208284031215611b8f57611b8e611970565b5b6000611b9d84828501611b64565b91505092915050565b611baf81611a55565b8114611bba57600080fd5b50565b600081359050611bcc81611ba6565b92915050565b60008060408385031215611be957611be8611970565b5b6000611bf785828601611bbd565b9250506020611c0885828601611b64565b9150509250929050565b600080600060608486031215611c2b57611c2a611970565b5b6000611c3986828701611bbd565b9350506020611c4a86828701611bbd565b9250506040611c5b86828701611b64565b9150509250925092565b600060208284031215611c7b57611c7a611970565b5b6000611c8984828501611bbd565b91505092915050565b611c9b81611b43565b82525050565b6000602082019050611cb66000830184611c92565b92915050565b611cc5816119ff565b8114611cd057600080fd5b50565b600081359050611ce281611cbc565b92915050565b60008060408385031215611cff57611cfe611970565b5b6000611d0d85828601611bbd565b9250506020611d1e85828601611cd3565b9150509250929050565b600080fd5b600080fd5b7f4e487b7100000000000000000000000000000000000000000000000000000000600052604160045260246000fd5b611d6a82611ad7565b810181811067ffffffffffffffff82111715611d8957611d88611d32565b5b80604052505050565b6000611d9c611966565b9050611da88282611d61565b919050565b600067ffffffffffffffff821115611dc857611dc7611d32565b5b611dd182611ad7565b9050602081019050919050565b82818337600083830152505050565b6000611e00611dfb84611dad565b611d92565b905082815260208101848484011115611e1c57611e1b611d2d565b5b611e27848285611dde565b509392505050565b600082601f830112611e4457611e43611d28565b5b8135611e54848260208601611ded565b91505092915050565b60008060008060808587031215611e7757611e76611970565b5b6000611e8587828801611bbd565b9450506020611e9687828801611bbd565b9350506040611ea787828801611b64565b925050606085013567ffffffffffffffff811115611ec857611ec7611975565b5b611ed487828801611e2f565b91505092959194509250565b60008060408385031215611ef757611ef6611970565b5b6000611f0585828601611bbd565b9250506020611f1685828601611bbd565b9150509250929050565b7f4e487b7100000000000000000000000000000000000000000000000000000000600052602260045260246000fd5b60006002820490506001821680611f6757607f821691505b602082108103611f7a57611f79611f20565b5b50919050565b7f4f6e6c79207468652063726561746f722063616e2072656465656d207469636b60008201527f6574730000000000000000000000000000000000000000000000000000000000602082015250565b6000611fdc602383611a9c565b9150611fe782611f80565b604082019050919050565b6000602082019050818103600083015261200b81611fcf565b9050919050565b7f5469636b657420646f6573206e6f742065786973740000000000000000000000600082015250565b6000612048601583611a9c565b915061205382612012565b602082019050919050565b600060208201905081810360008301526120778161203b565b9050919050565b7f5469636b65742068617320616c7265616479206265656e2072656465656d6564600082015250565b60006120b4602083611a9c565b91506120bf8261207e565b602082019050919050565b600060208201905081810360008301526120e3816120a7565b9050919050565b60006060820190506120ff6000830186611a67565b61210c6020830185611c92565b6121196040830184611a67565b949350505050565b7f416c6c207469636b6574732068617665206265656e206d696e74656400000000600082015250565b6000612157601c83611a9c565b915061216282612121565b602082019050919050565b600060208201905081810360008301526121868161214a565b9050919050565b7f4e487b7100000000000000000000000000000000000000000000000000000000600052601160045260246000fd5b60006121c782611b43565b91507fffffffffffffffffffffffffffffffffffffffffffffffffffffffffffffffff82036121f9576121f861218d565b5b600182019050919050565b600081905092915050565b600061221a82611a91565b6122248185612204565b9350612234818560208601611aad565b80840191505092915050565b600061224c828561220f565b9150612258828461220f565b91508190509392505050565b600081519050919050565b600082825260208201905092915050565b600061228b82612264565b612295818561226f565b93506122a5818560208601611aad565b6122ae81611ad7565b840191505092915050565b60006080820190506122ce6000830187611a67565b6122db6020830186611a67565b6122e86040830185611c92565b81810360608301526122fa8184612280565b905095945050505050565b600081519050612314816119a6565b92915050565b6000602082840312156123305761232f611970565b5b600061233e84828501612305565b91505092915050565b7f4e487b7100000000000000000000000000000000000000000000000000000000600052601260045260246000fd5b600060408201905061238b6000830185611a67565b6123986020830184611c92565b939250505056fea26469706673582212204f6d12111ee14ab29d0ac4a7298af0757f00b2f8f77fff3102a405c6575304fc64736f6c634300081c0033a2646970667358221220db5101490d420746c74a007ebf2f072225e0d24ec51aa1618905beed969a52ca64736f6c634300081c0033",
  "linkReferences": {},
  "deployedLinkReferences": {}
}